{
  "_format": "hh-sol-artifact-1",
  "contractName": "ChirpCity",
  "sourceName": "contracts/ChirpCity.sol",
  "abi": [
    {
      "inputs": [],
      "name": "MessageNotFound",
      "type": "error"
    },
    {
      "inputs": [],
      "name": "MessageTooLong",
      "type": "error"
    },
    {
      "inputs": [],
      "name": "TooManyMentions",
      "type": "error"
    },
    {
      "anonymous": false,
      "inputs": [
        {
          "indexed": true,
          "internalType": "address",
          "name": "to",
          "type": "address"
        },
        {
          "indexed": false,
          "internalType": "uint256",
          "name": "id",
          "type": "uint256"
        }
      ],
      "name": "ChirpCityMention",
      "type": "event"
    },
    {
      "anonymous": false,
      "inputs": [
        {
          "indexed": true,
          "internalType": "address",
          "name": "from",
          "type": "address"
        },
        {
          "indexed": false,
          "internalType": "uint256",
          "name": "id",
          "type": "uint256"
        }
      ],
      "name": "ChirpCityMessage",
      "type": "event"
    },
    {
      "anonymous": false,
      "inputs": [
        {
          "indexed": true,
          "internalType": "address",
          "name": "to",
          "type": "address"
        },
        {
          "indexed": false,
          "internalType": "uint256",
          "name": "id",
          "type": "uint256"
        }
      ],
      "name": "ChirpCityReply",
      "type": "event"
    },
    {
      "inputs": [
        {
          "internalType": "string",
          "name": "body",
          "type": "string"
        },
        {
          "internalType": "uint256",
          "name": "parentId",
          "type": "uint256"
        },
        {
          "internalType": "address[]",
          "name": "mentions",
          "type": "address[]"
        }
      ],
      "name": "chirp",
      "outputs": [],
      "stateMutability": "nonpayable",
      "type": "function"
    },
    {
      "inputs": [
        {
          "internalType": "uint256",
          "name": "",
          "type": "uint256"
        }
      ],
      "name": "messages",
      "outputs": [
        {
          "internalType": "uint256",
          "name": "timestamp",
          "type": "uint256"
        },
        {
          "internalType": "uint256",
          "name": "parentId",
          "type": "uint256"
        },
        {
          "internalType": "address",
          "name": "from",
          "type": "address"
        },
        {
          "internalType": "string",
          "name": "body",
          "type": "string"
        }
      ],
      "stateMutability": "view",
      "type": "function"
    }
  ],
  "bytecode": "0x608060405234801561001057600080fd5b50610722806100206000396000f3fe608060405234801561001057600080fd5b50600436106100365760003560e01c80630d80fefd1461003b578063c95f5ca214610067575b600080fd5b61004e6100493660046104bb565b61007c565b60405161005e94939291906104d4565b60405180910390f35b61007a610075366004610548565b610138565b005b6001602081905260009182526040909120805491810154600282015460038301805492936001600160a01b03909216926100b59061061a565b80601f01602080910402602001604051908101604052809291908181526020018280546100e19061061a565b801561012e5780601f106101035761010080835404028352916020019161012e565b820191906000526020600020905b81548152906001019060200180831161011157829003601f168201915b5050505050905084565b821580159061015f57506000838152600160205260409020600201546001600160a01b0316155b15610196576040517f28915ac700000000000000000000000000000000000000000000000000000000815260040160405180910390fd5b60108111156101d1576040517fe41b1ad400000000000000000000000000000000000000000000000000000000815260040160405180910390fd5b61010084111561020d576040517f8fd168ea00000000000000000000000000000000000000000000000000000000815260040160405180910390fd5b60008054908061021c8361066b565b91905055506040518060800160405280428152602001848152602001336001600160a01b0316815260200186868080601f01602080910402602001604051908101604052809392919081815260200183838082843760009201829052509390945250508054815260016020818152604092839020855181558582015192810192909255918401516002820180547fffffffffffffffffffffffff0000000000000000000000000000000000000000166001600160a01b03909216919091179055606084015180519193506102f7926003850192910190610422565b50506000546040519081523391507fb2b0762c6aa214894360c3335f388bac46a1f5c586e2ecf58493ad827bc057009060200160405180910390a2821561038c57600083815260016020908152604080832060020154925490519081526001600160a01b03909216917f5367ebe10fc919e0abe7e6bc683fa6fe3547f3eed2a958b3c886125087210799910160405180910390a25b60005b60ff811682111561041a5782828260ff168181106103af576103af610686565b90506020020160208101906103c4919061069c565b6001600160a01b03167f64838e5989e93577a25d96bad8a1f697a7d1866185145428a8a7609e17f7fbc660005460405161040091815260200190565b60405180910390a280610412816106cc565b91505061038f565b505050505050565b82805461042e9061061a565b90600052602060002090601f0160209004810192826104505760008555610496565b82601f1061046957805160ff1916838001178555610496565b82800160010185558215610496579182015b8281111561049657825182559160200191906001019061047b565b506104a29291506104a6565b5090565b5b808211156104a257600081556001016104a7565b6000602082840312156104cd57600080fd5b5035919050565b8481526000602085818401526001600160a01b038516604084015260806060840152835180608085015260005b8181101561051d5785810183015185820160a001528201610501565b8181111561052f57600060a083870101525b50601f01601f19169290920160a0019695505050505050565b60008060008060006060868803121561056057600080fd5b853567ffffffffffffffff8082111561057857600080fd5b818801915088601f83011261058c57600080fd5b81358181111561059b57600080fd5b8960208285010111156105ad57600080fd5b602092830197509550908701359350604087013590808211156105cf57600080fd5b818801915088601f8301126105e357600080fd5b8135818111156105f257600080fd5b8960208260051b850101111561060757600080fd5b9699959850939650602001949392505050565b600181811c9082168061062e57607f821691505b6020821081141561064f57634e487b7160e01b600052602260045260246000fd5b50919050565b634e487b7160e01b600052601160045260246000fd5b600060001982141561067f5761067f610655565b5060010190565b634e487b7160e01b600052603260045260246000fd5b6000602082840312156106ae57600080fd5b81356001600160a01b03811681146106c557600080fd5b9392505050565b600060ff821660ff8114156106e3576106e3610655565b6001019291505056fea264697066735822122054d3e7d0271faedb182a33e3339b3f3ab66205e18fb5b81947c425f5df899b7b64736f6c63430008090033",
  "linkReferences": {},
  "deployedLinkReferences": {}
}