{
  "_format": "hh-sol-artifact-1",
  "contractName": "ChirpCity",
  "sourceName": "contracts/ChirpCity.sol",
  "abi": [
    {
      "anonymous": false,
      "inputs": [
        {
          "indexed": true,
          "internalType": "address",
          "name": "previousOwner",
          "type": "address"
        },
        {
          "indexed": true,
          "internalType": "address",
          "name": "newOwner",
          "type": "address"
        }
      ],
      "name": "OwnershipTransferred",
      "type": "event"
    },
    {
      "anonymous": false,
      "inputs": [
        {
          "indexed": true,
          "internalType": "address",
          "name": "from",
          "type": "address"
        },
        {
          "indexed": false,
          "internalType": "string",
          "name": "message",
          "type": "string"
        }
      ],
      "name": "PublicMessage",
      "type": "event"
    },
    {
      "inputs": [
        {
          "internalType": "string",
          "name": "message",
          "type": "string"
        }
      ],
      "name": "chirp",
      "outputs": [],
      "stateMutability": "nonpayable",
      "type": "function"
    },
    {
      "inputs": [
        {
          "internalType": "address",
          "name": "forwarder",
          "type": "address"
        }
      ],
      "name": "isTrustedForwarder",
      "outputs": [
        {
          "internalType": "bool",
          "name": "",
          "type": "bool"
        }
      ],
      "stateMutability": "view",
      "type": "function"
    },
    {
      "inputs": [],
      "name": "owner",
      "outputs": [
        {
          "internalType": "address",
          "name": "",
          "type": "address"
        }
      ],
      "stateMutability": "view",
      "type": "function"
    },
    {
      "inputs": [],
      "name": "renounceOwnership",
      "outputs": [],
      "stateMutability": "nonpayable",
      "type": "function"
    },
    {
      "inputs": [
        {
          "internalType": "address",
          "name": "forwarder",
          "type": "address"
        }
      ],
      "name": "setTrustedForwarder",
      "outputs": [],
      "stateMutability": "nonpayable",
      "type": "function"
    },
    {
      "inputs": [
        {
          "internalType": "address",
          "name": "newOwner",
          "type": "address"
        }
      ],
      "name": "transferOwnership",
      "outputs": [],
      "stateMutability": "nonpayable",
      "type": "function"
    },
    {
      "inputs": [],
      "name": "trustedForwarder",
      "outputs": [
        {
          "internalType": "address",
          "name": "",
          "type": "address"
        }
      ],
      "stateMutability": "view",
      "type": "function"
    },
    {
      "inputs": [],
      "name": "versionRecipient",
      "outputs": [
        {
          "internalType": "string",
          "name": "",
          "type": "string"
        }
      ],
      "stateMutability": "pure",
      "type": "function"
    }
  ],
  "bytecode": "0x608060405234801561001057600080fd5b5061002161001c610026565b61003f565b6100c3565b600061003a61008f60201b6103fd1760201c565b905090565b600080546001600160a01b038381166001600160a01b0319831681178455604051919092169283917f8be0079c531659141344cd1fd0a4f28419497f9722a3daafe3b4186f6b6457e09190a35050565b6000601436108015906100ac57506001546001600160a01b031633145b156100be575060131936013560601c90565b503390565b6105f9806100d26000396000f3fe608060405234801561001057600080fd5b50600436106100885760003560e01c80637da0a8771161005b5780637da0a877146101245780638da5cb5b14610149578063da7422281461015a578063f2fde38b1461016d57600080fd5b806304efe1a61461008d578063486ff0cd146100a2578063572b6c05146100ea578063715018a61461011c575b600080fd5b6100a061009b36600461049d565b610180565b005b604080518082018252600581527f312e302e30000000000000000000000000000000000000000000000000000000602082015290516100e1919061050f565b60405180910390f35b61010c6100f8366004610564565b6001546001600160a01b0391821691161490565b60405190151581526020016100e1565b6100a06101ce565b6001546001600160a01b03165b6040516001600160a01b0390911681526020016100e1565b6000546001600160a01b0316610131565b6100a0610168366004610564565b610258565b6100a061017b366004610564565b6102ff565b610188610431565b6001600160a01b03167f52a8ce8a3282be6597176f58155d2f93c03246c4f746a449fcee7ac048e5f03483836040516101c2929190610594565b60405180910390a25050565b6101d6610431565b6001600160a01b03166101f16000546001600160a01b031690565b6001600160a01b03161461024c5760405162461bcd60e51b815260206004820181905260248201527f4f776e61626c653a2063616c6c6572206973206e6f7420746865206f776e657260448201526064015b60405180910390fd5b6102566000610440565b565b610260610431565b6001600160a01b031661027b6000546001600160a01b031690565b6001600160a01b0316146102d15760405162461bcd60e51b815260206004820181905260248201527f4f776e61626c653a2063616c6c6572206973206e6f7420746865206f776e65726044820152606401610243565b6001805473ffffffffffffffffffffffffffffffffffffffff19166001600160a01b03831617905550565b50565b610307610431565b6001600160a01b03166103226000546001600160a01b031690565b6001600160a01b0316146103785760405162461bcd60e51b815260206004820181905260248201527f4f776e61626c653a2063616c6c6572206973206e6f7420746865206f776e65726044820152606401610243565b6001600160a01b0381166103f45760405162461bcd60e51b815260206004820152602660248201527f4f776e61626c653a206e6577206f776e657220697320746865207a65726f206160448201527f64647265737300000000000000000000000000000000000000000000000000006064820152608401610243565b6102fc81610440565b60006014361080159061041a57506001546001600160a01b031633145b1561042c575060131936013560601c90565b503390565b600061043b6103fd565b905090565b600080546001600160a01b0383811673ffffffffffffffffffffffffffffffffffffffff19831681178455604051919092169283917f8be0079c531659141344cd1fd0a4f28419497f9722a3daafe3b4186f6b6457e09190a35050565b600080602083850312156104b057600080fd5b823567ffffffffffffffff808211156104c857600080fd5b818501915085601f8301126104dc57600080fd5b8135818111156104eb57600080fd5b8660208285010111156104fd57600080fd5b60209290920196919550909350505050565b600060208083528351808285015260005b8181101561053c57858101830151858201604001528201610520565b8181111561054e576000604083870101525b50601f01601f1916929092016040019392505050565b60006020828403121561057657600080fd5b81356001600160a01b038116811461058d57600080fd5b9392505050565b60208152816020820152818360408301376000818301604090810191909152601f909201601f1916010191905056fea264697066735822122009c6e1e2f369ab26732e61ab418e495971c91bde422017cfeee51503c98fe0b664736f6c63430008090033",
  "linkReferences": {},
  "deployedLinkReferences": {}
}