{
  "contracts/ChirpCity.sol": {
    "ChirpCity": {
      "abi": [
        {
          "inputs": [],
          "name": "MessageNotFound",
          "type": "error"
        },
        {
          "inputs": [],
          "name": "MessageTooLong",
          "type": "error"
        },
        {
          "inputs": [],
          "name": "TooManyMentions",
          "type": "error"
        },
        {
          "anonymous": false,
          "inputs": [
            {
              "indexed": true,
              "internalType": "address",
              "name": "to",
              "type": "address"
            },
            {
              "indexed": false,
              "internalType": "uint256",
              "name": "id",
              "type": "uint256"
            }
          ],
          "name": "ChirpCityMention",
          "type": "event"
        },
        {
          "anonymous": false,
          "inputs": [
            {
              "indexed": true,
              "internalType": "address",
              "name": "from",
              "type": "address"
            },
            {
              "indexed": false,
              "internalType": "uint256",
              "name": "id",
              "type": "uint256"
            }
          ],
          "name": "ChirpCityMessage",
          "type": "event"
        },
        {
          "anonymous": false,
          "inputs": [
            {
              "indexed": true,
              "internalType": "address",
              "name": "to",
              "type": "address"
            },
            {
              "indexed": false,
              "internalType": "uint256",
              "name": "id",
              "type": "uint256"
            }
          ],
          "name": "ChirpCityReply",
          "type": "event"
        },
        {
          "inputs": [
            {
              "internalType": "string",
              "name": "body",
              "type": "string"
            },
            {
              "internalType": "uint256",
              "name": "parentId",
              "type": "uint256"
            },
            {
              "internalType": "address[]",
              "name": "mentions",
              "type": "address[]"
            }
          ],
          "name": "chirp",
          "outputs": [],
          "stateMutability": "nonpayable",
          "type": "function"
        },
        {
          "inputs": [
            {
              "internalType": "uint256",
              "name": "",
              "type": "uint256"
            }
          ],
          "name": "messages",
          "outputs": [
            {
              "internalType": "uint256",
              "name": "timestamp",
              "type": "uint256"
            },
            {
              "internalType": "uint256",
              "name": "parentId",
              "type": "uint256"
            },
            {
              "internalType": "address",
              "name": "from",
              "type": "address"
            },
            {
              "internalType": "string",
              "name": "body",
              "type": "string"
            }
          ],
          "stateMutability": "view",
          "type": "function"
        }
      ],
      "evm": {
        "bytecode": {
          "linkReferences": {},
          "object": "608060405234801561001057600080fd5b50610722806100206000396000f3fe608060405234801561001057600080fd5b50600436106100365760003560e01c80630d80fefd1461003b578063c95f5ca214610067575b600080fd5b61004e6100493660046104bb565b61007c565b60405161005e94939291906104d4565b60405180910390f35b61007a610075366004610548565b610138565b005b6001602081905260009182526040909120805491810154600282015460038301805492936001600160a01b03909216926100b59061061a565b80601f01602080910402602001604051908101604052809291908181526020018280546100e19061061a565b801561012e5780601f106101035761010080835404028352916020019161012e565b820191906000526020600020905b81548152906001019060200180831161011157829003601f168201915b5050505050905084565b821580159061015f57506000838152600160205260409020600201546001600160a01b0316155b15610196576040517f28915ac700000000000000000000000000000000000000000000000000000000815260040160405180910390fd5b60108111156101d1576040517fe41b1ad400000000000000000000000000000000000000000000000000000000815260040160405180910390fd5b61010084111561020d576040517f8fd168ea00000000000000000000000000000000000000000000000000000000815260040160405180910390fd5b60008054908061021c8361066b565b91905055506040518060800160405280428152602001848152602001336001600160a01b0316815260200186868080601f01602080910402602001604051908101604052809392919081815260200183838082843760009201829052509390945250508054815260016020818152604092839020855181558582015192810192909255918401516002820180547fffffffffffffffffffffffff0000000000000000000000000000000000000000166001600160a01b03909216919091179055606084015180519193506102f7926003850192910190610422565b50506000546040519081523391507fb2b0762c6aa214894360c3335f388bac46a1f5c586e2ecf58493ad827bc057009060200160405180910390a2821561038c57600083815260016020908152604080832060020154925490519081526001600160a01b03909216917f5367ebe10fc919e0abe7e6bc683fa6fe3547f3eed2a958b3c886125087210799910160405180910390a25b60005b60ff811682111561041a5782828260ff168181106103af576103af610686565b90506020020160208101906103c4919061069c565b6001600160a01b03167f64838e5989e93577a25d96bad8a1f697a7d1866185145428a8a7609e17f7fbc660005460405161040091815260200190565b60405180910390a280610412816106cc565b91505061038f565b505050505050565b82805461042e9061061a565b90600052602060002090601f0160209004810192826104505760008555610496565b82601f1061046957805160ff1916838001178555610496565b82800160010185558215610496579182015b8281111561049657825182559160200191906001019061047b565b506104a29291506104a6565b5090565b5b808211156104a257600081556001016104a7565b6000602082840312156104cd57600080fd5b5035919050565b8481526000602085818401526001600160a01b038516604084015260806060840152835180608085015260005b8181101561051d5785810183015185820160a001528201610501565b8181111561052f57600060a083870101525b50601f01601f19169290920160a0019695505050505050565b60008060008060006060868803121561056057600080fd5b853567ffffffffffffffff8082111561057857600080fd5b818801915088601f83011261058c57600080fd5b81358181111561059b57600080fd5b8960208285010111156105ad57600080fd5b602092830197509550908701359350604087013590808211156105cf57600080fd5b818801915088601f8301126105e357600080fd5b8135818111156105f257600080fd5b8960208260051b850101111561060757600080fd5b9699959850939650602001949392505050565b600181811c9082168061062e57607f821691505b6020821081141561064f57634e487b7160e01b600052602260045260246000fd5b50919050565b634e487b7160e01b600052601160045260246000fd5b600060001982141561067f5761067f610655565b5060010190565b634e487b7160e01b600052603260045260246000fd5b6000602082840312156106ae57600080fd5b81356001600160a01b03811681146106c557600080fd5b9392505050565b600060ff821660ff8114156106e3576106e3610655565b6001019291505056fea264697066735822122054d3e7d0271faedb182a33e3339b3f3ab66205e18fb5b81947c425f5df899b7b64736f6c63430008090033",
          "opcodes": "PUSH1 0x80 PUSH1 0x40 MSTORE CALLVALUE DUP1 ISZERO PUSH2 0x10 JUMPI PUSH1 0x0 DUP1 REVERT JUMPDEST POP PUSH2 0x722 DUP1 PUSH2 0x20 PUSH1 0x0 CODECOPY PUSH1 0x0 RETURN INVALID PUSH1 0x80 PUSH1 0x40 MSTORE CALLVALUE DUP1 ISZERO PUSH2 0x10 JUMPI PUSH1 0x0 DUP1 REVERT JUMPDEST POP PUSH1 0x4 CALLDATASIZE LT PUSH2 0x36 JUMPI PUSH1 0x0 CALLDATALOAD PUSH1 0xE0 SHR DUP1 PUSH4 0xD80FEFD EQ PUSH2 0x3B JUMPI DUP1 PUSH4 0xC95F5CA2 EQ PUSH2 0x67 JUMPI JUMPDEST PUSH1 0x0 DUP1 REVERT JUMPDEST PUSH2 0x4E PUSH2 0x49 CALLDATASIZE PUSH1 0x4 PUSH2 0x4BB JUMP JUMPDEST PUSH2 0x7C JUMP JUMPDEST PUSH1 0x40 MLOAD PUSH2 0x5E SWAP5 SWAP4 SWAP3 SWAP2 SWAP1 PUSH2 0x4D4 JUMP JUMPDEST PUSH1 0x40 MLOAD DUP1 SWAP2 SUB SWAP1 RETURN JUMPDEST PUSH2 0x7A PUSH2 0x75 CALLDATASIZE PUSH1 0x4 PUSH2 0x548 JUMP JUMPDEST PUSH2 0x138 JUMP JUMPDEST STOP JUMPDEST PUSH1 0x1 PUSH1 0x20 DUP2 SWAP1 MSTORE PUSH1 0x0 SWAP2 DUP3 MSTORE PUSH1 0x40 SWAP1 SWAP2 KECCAK256 DUP1 SLOAD SWAP2 DUP2 ADD SLOAD PUSH1 0x2 DUP3 ADD SLOAD PUSH1 0x3 DUP4 ADD DUP1 SLOAD SWAP3 SWAP4 PUSH1 0x1 PUSH1 0x1 PUSH1 0xA0 SHL SUB SWAP1 SWAP3 AND SWAP3 PUSH2 0xB5 SWAP1 PUSH2 0x61A JUMP JUMPDEST DUP1 PUSH1 0x1F ADD PUSH1 0x20 DUP1 SWAP2 DIV MUL PUSH1 0x20 ADD PUSH1 0x40 MLOAD SWAP1 DUP2 ADD PUSH1 0x40 MSTORE DUP1 SWAP3 SWAP2 SWAP1 DUP2 DUP2 MSTORE PUSH1 0x20 ADD DUP3 DUP1 SLOAD PUSH2 0xE1 SWAP1 PUSH2 0x61A JUMP JUMPDEST DUP1 ISZERO PUSH2 0x12E JUMPI DUP1 PUSH1 0x1F LT PUSH2 0x103 JUMPI PUSH2 0x100 DUP1 DUP4 SLOAD DIV MUL DUP4 MSTORE SWAP2 PUSH1 0x20 ADD SWAP2 PUSH2 0x12E JUMP JUMPDEST DUP3 ADD SWAP2 SWAP1 PUSH1 0x0 MSTORE PUSH1 0x20 PUSH1 0x0 KECCAK256 SWAP1 JUMPDEST DUP2 SLOAD DUP2 MSTORE SWAP1 PUSH1 0x1 ADD SWAP1 PUSH1 0x20 ADD DUP1 DUP4 GT PUSH2 0x111 JUMPI DUP3 SWAP1 SUB PUSH1 0x1F AND DUP3 ADD SWAP2 JUMPDEST POP POP POP POP POP SWAP1 POP DUP5 JUMP JUMPDEST DUP3 ISZERO DUP1 ISZERO SWAP1 PUSH2 0x15F JUMPI POP PUSH1 0x0 DUP4 DUP2 MSTORE PUSH1 0x1 PUSH1 0x20 MSTORE PUSH1 0x40 SWAP1 KECCAK256 PUSH1 0x2 ADD SLOAD PUSH1 0x1 PUSH1 0x1 PUSH1 0xA0 SHL SUB AND ISZERO JUMPDEST ISZERO PUSH2 0x196 JUMPI PUSH1 0x40 MLOAD PUSH32 0x28915AC700000000000000000000000000000000000000000000000000000000 DUP2 MSTORE PUSH1 0x4 ADD PUSH1 0x40 MLOAD DUP1 SWAP2 SUB SWAP1 REVERT JUMPDEST PUSH1 0x10 DUP2 GT ISZERO PUSH2 0x1D1 JUMPI PUSH1 0x40 MLOAD PUSH32 0xE41B1AD400000000000000000000000000000000000000000000000000000000 DUP2 MSTORE PUSH1 0x4 ADD PUSH1 0x40 MLOAD DUP1 SWAP2 SUB SWAP1 REVERT JUMPDEST PUSH2 0x100 DUP5 GT ISZERO PUSH2 0x20D JUMPI PUSH1 0x40 MLOAD PUSH32 0x8FD168EA00000000000000000000000000000000000000000000000000000000 DUP2 MSTORE PUSH1 0x4 ADD PUSH1 0x40 MLOAD DUP1 SWAP2 SUB SWAP1 REVERT JUMPDEST PUSH1 0x0 DUP1 SLOAD SWAP1 DUP1 PUSH2 0x21C DUP4 PUSH2 0x66B JUMP JUMPDEST SWAP2 SWAP1 POP SSTORE POP PUSH1 0x40 MLOAD DUP1 PUSH1 0x80 ADD PUSH1 0x40 MSTORE DUP1 TIMESTAMP DUP2 MSTORE PUSH1 0x20 ADD DUP5 DUP2 MSTORE PUSH1 0x20 ADD CALLER PUSH1 0x1 PUSH1 0x1 PUSH1 0xA0 SHL SUB AND DUP2 MSTORE PUSH1 0x20 ADD DUP7 DUP7 DUP1 DUP1 PUSH1 0x1F ADD PUSH1 0x20 DUP1 SWAP2 DIV MUL PUSH1 0x20 ADD PUSH1 0x40 MLOAD SWAP1 DUP2 ADD PUSH1 0x40 MSTORE DUP1 SWAP4 SWAP3 SWAP2 SWAP1 DUP2 DUP2 MSTORE PUSH1 0x20 ADD DUP4 DUP4 DUP1 DUP3 DUP5 CALLDATACOPY PUSH1 0x0 SWAP3 ADD DUP3 SWAP1 MSTORE POP SWAP4 SWAP1 SWAP5 MSTORE POP POP DUP1 SLOAD DUP2 MSTORE PUSH1 0x1 PUSH1 0x20 DUP2 DUP2 MSTORE PUSH1 0x40 SWAP3 DUP4 SWAP1 KECCAK256 DUP6 MLOAD DUP2 SSTORE DUP6 DUP3 ADD MLOAD SWAP3 DUP2 ADD SWAP3 SWAP1 SWAP3 SSTORE SWAP2 DUP5 ADD MLOAD PUSH1 0x2 DUP3 ADD DUP1 SLOAD PUSH32 0xFFFFFFFFFFFFFFFFFFFFFFFF0000000000000000000000000000000000000000 AND PUSH1 0x1 PUSH1 0x1 PUSH1 0xA0 SHL SUB SWAP1 SWAP3 AND SWAP2 SWAP1 SWAP2 OR SWAP1 SSTORE PUSH1 0x60 DUP5 ADD MLOAD DUP1 MLOAD SWAP2 SWAP4 POP PUSH2 0x2F7 SWAP3 PUSH1 0x3 DUP6 ADD SWAP3 SWAP2 ADD SWAP1 PUSH2 0x422 JUMP JUMPDEST POP POP PUSH1 0x0 SLOAD PUSH1 0x40 MLOAD SWAP1 DUP2 MSTORE CALLER SWAP2 POP PUSH32 0xB2B0762C6AA214894360C3335F388BAC46A1F5C586E2ECF58493AD827BC05700 SWAP1 PUSH1 0x20 ADD PUSH1 0x40 MLOAD DUP1 SWAP2 SUB SWAP1 LOG2 DUP3 ISZERO PUSH2 0x38C JUMPI PUSH1 0x0 DUP4 DUP2 MSTORE PUSH1 0x1 PUSH1 0x20 SWAP1 DUP2 MSTORE PUSH1 0x40 DUP1 DUP4 KECCAK256 PUSH1 0x2 ADD SLOAD SWAP3 SLOAD SWAP1 MLOAD SWAP1 DUP2 MSTORE PUSH1 0x1 PUSH1 0x1 PUSH1 0xA0 SHL SUB SWAP1 SWAP3 AND SWAP2 PUSH32 0x5367EBE10FC919E0ABE7E6BC683FA6FE3547F3EED2A958B3C886125087210799 SWAP2 ADD PUSH1 0x40 MLOAD DUP1 SWAP2 SUB SWAP1 LOG2 JUMPDEST PUSH1 0x0 JUMPDEST PUSH1 0xFF DUP2 AND DUP3 GT ISZERO PUSH2 0x41A JUMPI DUP3 DUP3 DUP3 PUSH1 0xFF AND DUP2 DUP2 LT PUSH2 0x3AF JUMPI PUSH2 0x3AF PUSH2 0x686 JUMP JUMPDEST SWAP1 POP PUSH1 0x20 MUL ADD PUSH1 0x20 DUP2 ADD SWAP1 PUSH2 0x3C4 SWAP2 SWAP1 PUSH2 0x69C JUMP JUMPDEST PUSH1 0x1 PUSH1 0x1 PUSH1 0xA0 SHL SUB AND PUSH32 0x64838E5989E93577A25D96BAD8A1F697A7D1866185145428A8A7609E17F7FBC6 PUSH1 0x0 SLOAD PUSH1 0x40 MLOAD PUSH2 0x400 SWAP2 DUP2 MSTORE PUSH1 0x20 ADD SWAP1 JUMP JUMPDEST PUSH1 0x40 MLOAD DUP1 SWAP2 SUB SWAP1 LOG2 DUP1 PUSH2 0x412 DUP2 PUSH2 0x6CC JUMP JUMPDEST SWAP2 POP POP PUSH2 0x38F JUMP JUMPDEST POP POP POP POP POP POP JUMP JUMPDEST DUP3 DUP1 SLOAD PUSH2 0x42E SWAP1 PUSH2 0x61A JUMP JUMPDEST SWAP1 PUSH1 0x0 MSTORE PUSH1 0x20 PUSH1 0x0 KECCAK256 SWAP1 PUSH1 0x1F ADD PUSH1 0x20 SWAP1 DIV DUP2 ADD SWAP3 DUP3 PUSH2 0x450 JUMPI PUSH1 0x0 DUP6 SSTORE PUSH2 0x496 JUMP JUMPDEST DUP3 PUSH1 0x1F LT PUSH2 0x469 JUMPI DUP1 MLOAD PUSH1 0xFF NOT AND DUP4 DUP1 ADD OR DUP6 SSTORE PUSH2 0x496 JUMP JUMPDEST DUP3 DUP1 ADD PUSH1 0x1 ADD DUP6 SSTORE DUP3 ISZERO PUSH2 0x496 JUMPI SWAP2 DUP3 ADD JUMPDEST DUP3 DUP2 GT ISZERO PUSH2 0x496 JUMPI DUP3 MLOAD DUP3 SSTORE SWAP2 PUSH1 0x20 ADD SWAP2 SWAP1 PUSH1 0x1 ADD SWAP1 PUSH2 0x47B JUMP JUMPDEST POP PUSH2 0x4A2 SWAP3 SWAP2 POP PUSH2 0x4A6 JUMP JUMPDEST POP SWAP1 JUMP JUMPDEST JUMPDEST DUP1 DUP3 GT ISZERO PUSH2 0x4A2 JUMPI PUSH1 0x0 DUP2 SSTORE PUSH1 0x1 ADD PUSH2 0x4A7 JUMP JUMPDEST PUSH1 0x0 PUSH1 0x20 DUP3 DUP5 SUB SLT ISZERO PUSH2 0x4CD JUMPI PUSH1 0x0 DUP1 REVERT JUMPDEST POP CALLDATALOAD SWAP2 SWAP1 POP JUMP JUMPDEST DUP5 DUP2 MSTORE PUSH1 0x0 PUSH1 0x20 DUP6 DUP2 DUP5 ADD MSTORE PUSH1 0x1 PUSH1 0x1 PUSH1 0xA0 SHL SUB DUP6 AND PUSH1 0x40 DUP5 ADD MSTORE PUSH1 0x80 PUSH1 0x60 DUP5 ADD MSTORE DUP4 MLOAD DUP1 PUSH1 0x80 DUP6 ADD MSTORE PUSH1 0x0 JUMPDEST DUP2 DUP2 LT ISZERO PUSH2 0x51D JUMPI DUP6 DUP2 ADD DUP4 ADD MLOAD DUP6 DUP3 ADD PUSH1 0xA0 ADD MSTORE DUP3 ADD PUSH2 0x501 JUMP JUMPDEST DUP2 DUP2 GT ISZERO PUSH2 0x52F JUMPI PUSH1 0x0 PUSH1 0xA0 DUP4 DUP8 ADD ADD MSTORE JUMPDEST POP PUSH1 0x1F ADD PUSH1 0x1F NOT AND SWAP3 SWAP1 SWAP3 ADD PUSH1 0xA0 ADD SWAP7 SWAP6 POP POP POP POP POP POP JUMP JUMPDEST PUSH1 0x0 DUP1 PUSH1 0x0 DUP1 PUSH1 0x0 PUSH1 0x60 DUP7 DUP9 SUB SLT ISZERO PUSH2 0x560 JUMPI PUSH1 0x0 DUP1 REVERT JUMPDEST DUP6 CALLDATALOAD PUSH8 0xFFFFFFFFFFFFFFFF DUP1 DUP3 GT ISZERO PUSH2 0x578 JUMPI PUSH1 0x0 DUP1 REVERT JUMPDEST DUP2 DUP9 ADD SWAP2 POP DUP9 PUSH1 0x1F DUP4 ADD SLT PUSH2 0x58C JUMPI PUSH1 0x0 DUP1 REVERT JUMPDEST DUP2 CALLDATALOAD DUP2 DUP2 GT ISZERO PUSH2 0x59B JUMPI PUSH1 0x0 DUP1 REVERT JUMPDEST DUP10 PUSH1 0x20 DUP3 DUP6 ADD ADD GT ISZERO PUSH2 0x5AD JUMPI PUSH1 0x0 DUP1 REVERT JUMPDEST PUSH1 0x20 SWAP3 DUP4 ADD SWAP8 POP SWAP6 POP SWAP1 DUP8 ADD CALLDATALOAD SWAP4 POP PUSH1 0x40 DUP8 ADD CALLDATALOAD SWAP1 DUP1 DUP3 GT ISZERO PUSH2 0x5CF JUMPI PUSH1 0x0 DUP1 REVERT JUMPDEST DUP2 DUP9 ADD SWAP2 POP DUP9 PUSH1 0x1F DUP4 ADD SLT PUSH2 0x5E3 JUMPI PUSH1 0x0 DUP1 REVERT JUMPDEST DUP2 CALLDATALOAD DUP2 DUP2 GT ISZERO PUSH2 0x5F2 JUMPI PUSH1 0x0 DUP1 REVERT JUMPDEST DUP10 PUSH1 0x20 DUP3 PUSH1 0x5 SHL DUP6 ADD ADD GT ISZERO PUSH2 0x607 JUMPI PUSH1 0x0 DUP1 REVERT JUMPDEST SWAP7 SWAP10 SWAP6 SWAP9 POP SWAP4 SWAP7 POP PUSH1 0x20 ADD SWAP5 SWAP4 SWAP3 POP POP POP JUMP JUMPDEST PUSH1 0x1 DUP2 DUP2 SHR SWAP1 DUP3 AND DUP1 PUSH2 0x62E JUMPI PUSH1 0x7F DUP3 AND SWAP2 POP JUMPDEST PUSH1 0x20 DUP3 LT DUP2 EQ ISZERO PUSH2 0x64F JUMPI PUSH4 0x4E487B71 PUSH1 0xE0 SHL PUSH1 0x0 MSTORE PUSH1 0x22 PUSH1 0x4 MSTORE PUSH1 0x24 PUSH1 0x0 REVERT JUMPDEST POP SWAP2 SWAP1 POP JUMP JUMPDEST PUSH4 0x4E487B71 PUSH1 0xE0 SHL PUSH1 0x0 MSTORE PUSH1 0x11 PUSH1 0x4 MSTORE PUSH1 0x24 PUSH1 0x0 REVERT JUMPDEST PUSH1 0x0 PUSH1 0x0 NOT DUP3 EQ ISZERO PUSH2 0x67F JUMPI PUSH2 0x67F PUSH2 0x655 JUMP JUMPDEST POP PUSH1 0x1 ADD SWAP1 JUMP JUMPDEST PUSH4 0x4E487B71 PUSH1 0xE0 SHL PUSH1 0x0 MSTORE PUSH1 0x32 PUSH1 0x4 MSTORE PUSH1 0x24 PUSH1 0x0 REVERT JUMPDEST PUSH1 0x0 PUSH1 0x20 DUP3 DUP5 SUB SLT ISZERO PUSH2 0x6AE JUMPI PUSH1 0x0 DUP1 REVERT JUMPDEST DUP2 CALLDATALOAD PUSH1 0x1 PUSH1 0x1 PUSH1 0xA0 SHL SUB DUP2 AND DUP2 EQ PUSH2 0x6C5 JUMPI PUSH1 0x0 DUP1 REVERT JUMPDEST SWAP4 SWAP3 POP POP POP JUMP JUMPDEST PUSH1 0x0 PUSH1 0xFF DUP3 AND PUSH1 0xFF DUP2 EQ ISZERO PUSH2 0x6E3 JUMPI PUSH2 0x6E3 PUSH2 0x655 JUMP JUMPDEST PUSH1 0x1 ADD SWAP3 SWAP2 POP POP JUMP INVALID LOG2 PUSH5 0x6970667358 0x22 SLT KECCAK256 SLOAD 0xD3 0xE7 0xD0 0x27 0x1F 0xAE 0xDB XOR 0x2A CALLER 0xE3 CALLER SWAP12 EXTCODEHASH GASPRICE 0xB6 PUSH3 0x5E18F 0xB5 0xB8 NOT SELFBALANCE 0xC4 0x25 CREATE2 0xDF DUP10 SWAP12 PUSH28 0x64736F6C634300080900330000000000000000000000000000000000 "
        },
        "methodIdentifiers": {
          "chirp(string,uint256,address[])": "c95f5ca2",
          "messages(uint256)": "0d80fefd"
        }
      }
    }
  }
}