{
  "contracts/Tweeter.sol": {
    "Tweeter": {
      "abi": [
        {
          "anonymous": false,
          "inputs": [
            {
              "indexed": true,
              "internalType": "string",
              "name": "message",
              "type": "string"
            },
            {
              "indexed": true,
              "internalType": "address",
              "name": "from",
              "type": "address"
            }
          ],
          "name": "Tweet",
          "type": "event"
        },
        {
          "inputs": [
            {
              "internalType": "string",
              "name": "message",
              "type": "string"
            }
          ],
          "name": "tweet",
          "outputs": [],
          "stateMutability": "nonpayable",
          "type": "function"
        }
      ],
      "evm": {
        "bytecode": {
          "linkReferences": {},
          "object": "608060405234801561001057600080fd5b506101f5806100206000396000f3fe608060405234801561001057600080fd5b506004361061002b5760003560e01c8063fb46d4c514610030575b600080fd5b61004a6004803603810190610045919061011a565b61004c565b005b3373ffffffffffffffffffffffffffffffffffffffff1682826040516100739291906101a6565b60405180910390207f5e6abd5f6c4acdf3da2b8f2796424ad07183527b85db26ff4baf14f8332ae66d60405160405180910390a35050565b600080fd5b600080fd5b600080fd5b600080fd5b600080fd5b60008083601f8401126100da576100d96100b5565b5b8235905067ffffffffffffffff8111156100f7576100f66100ba565b5b602083019150836001820283011115610113576101126100bf565b5b9250929050565b60008060208385031215610131576101306100ab565b5b600083013567ffffffffffffffff81111561014f5761014e6100b0565b5b61015b858286016100c4565b92509250509250929050565b600081905092915050565b82818337600083830152505050565b600061018d8385610167565b935061019a838584610172565b82840190509392505050565b60006101b3828486610181565b9150819050939250505056fea2646970667358221220378b235c9022c97e3c0d277666e69aec605dd793417e44582a47ef65f0e1ce6064736f6c63430008090033",
          "opcodes": "PUSH1 0x80 PUSH1 0x40 MSTORE CALLVALUE DUP1 ISZERO PUSH2 0x10 JUMPI PUSH1 0x0 DUP1 REVERT JUMPDEST POP PUSH2 0x1F5 DUP1 PUSH2 0x20 PUSH1 0x0 CODECOPY PUSH1 0x0 RETURN INVALID PUSH1 0x80 PUSH1 0x40 MSTORE CALLVALUE DUP1 ISZERO PUSH2 0x10 JUMPI PUSH1 0x0 DUP1 REVERT JUMPDEST POP PUSH1 0x4 CALLDATASIZE LT PUSH2 0x2B JUMPI PUSH1 0x0 CALLDATALOAD PUSH1 0xE0 SHR DUP1 PUSH4 0xFB46D4C5 EQ PUSH2 0x30 JUMPI JUMPDEST PUSH1 0x0 DUP1 REVERT JUMPDEST PUSH2 0x4A PUSH1 0x4 DUP1 CALLDATASIZE SUB DUP2 ADD SWAP1 PUSH2 0x45 SWAP2 SWAP1 PUSH2 0x11A JUMP JUMPDEST PUSH2 0x4C JUMP JUMPDEST STOP JUMPDEST CALLER PUSH20 0xFFFFFFFFFFFFFFFFFFFFFFFFFFFFFFFFFFFFFFFF AND DUP3 DUP3 PUSH1 0x40 MLOAD PUSH2 0x73 SWAP3 SWAP2 SWAP1 PUSH2 0x1A6 JUMP JUMPDEST PUSH1 0x40 MLOAD DUP1 SWAP2 SUB SWAP1 KECCAK256 PUSH32 0x5E6ABD5F6C4ACDF3DA2B8F2796424AD07183527B85DB26FF4BAF14F8332AE66D PUSH1 0x40 MLOAD PUSH1 0x40 MLOAD DUP1 SWAP2 SUB SWAP1 LOG3 POP POP JUMP JUMPDEST PUSH1 0x0 DUP1 REVERT JUMPDEST PUSH1 0x0 DUP1 REVERT JUMPDEST PUSH1 0x0 DUP1 REVERT JUMPDEST PUSH1 0x0 DUP1 REVERT JUMPDEST PUSH1 0x0 DUP1 REVERT JUMPDEST PUSH1 0x0 DUP1 DUP4 PUSH1 0x1F DUP5 ADD SLT PUSH2 0xDA JUMPI PUSH2 0xD9 PUSH2 0xB5 JUMP JUMPDEST JUMPDEST DUP3 CALLDATALOAD SWAP1 POP PUSH8 0xFFFFFFFFFFFFFFFF DUP2 GT ISZERO PUSH2 0xF7 JUMPI PUSH2 0xF6 PUSH2 0xBA JUMP JUMPDEST JUMPDEST PUSH1 0x20 DUP4 ADD SWAP2 POP DUP4 PUSH1 0x1 DUP3 MUL DUP4 ADD GT ISZERO PUSH2 0x113 JUMPI PUSH2 0x112 PUSH2 0xBF JUMP JUMPDEST JUMPDEST SWAP3 POP SWAP3 SWAP1 POP JUMP JUMPDEST PUSH1 0x0 DUP1 PUSH1 0x20 DUP4 DUP6 SUB SLT ISZERO PUSH2 0x131 JUMPI PUSH2 0x130 PUSH2 0xAB JUMP JUMPDEST JUMPDEST PUSH1 0x0 DUP4 ADD CALLDATALOAD PUSH8 0xFFFFFFFFFFFFFFFF DUP2 GT ISZERO PUSH2 0x14F JUMPI PUSH2 0x14E PUSH2 0xB0 JUMP JUMPDEST JUMPDEST PUSH2 0x15B DUP6 DUP3 DUP7 ADD PUSH2 0xC4 JUMP JUMPDEST SWAP3 POP SWAP3 POP POP SWAP3 POP SWAP3 SWAP1 POP JUMP JUMPDEST PUSH1 0x0 DUP2 SWAP1 POP SWAP3 SWAP2 POP POP JUMP JUMPDEST DUP3 DUP2 DUP4 CALLDATACOPY PUSH1 0x0 DUP4 DUP4 ADD MSTORE POP POP POP JUMP JUMPDEST PUSH1 0x0 PUSH2 0x18D DUP4 DUP6 PUSH2 0x167 JUMP JUMPDEST SWAP4 POP PUSH2 0x19A DUP4 DUP6 DUP5 PUSH2 0x172 JUMP JUMPDEST DUP3 DUP5 ADD SWAP1 POP SWAP4 SWAP3 POP POP POP JUMP JUMPDEST PUSH1 0x0 PUSH2 0x1B3 DUP3 DUP5 DUP7 PUSH2 0x181 JUMP JUMPDEST SWAP2 POP DUP2 SWAP1 POP SWAP4 SWAP3 POP POP POP JUMP INVALID LOG2 PUSH5 0x6970667358 0x22 SLT KECCAK256 CALLDATACOPY DUP12 0x23 0x5C SWAP1 0x22 0xC9 PUSH31 0x3C0D277666E69AEC605DD793417E44582A47EF65F0E1CE6064736F6C634300 ADDMOD MULMOD STOP CALLER "
        },
        "methodIdentifiers": {
          "tweet(string)": "fb46d4c5"
        }
      }
    }
  }
}