{
  "_format": "hh-sol-artifact-1",
  "contractName": "Tweeter",
  "sourceName": "contracts/Tweeter.sol",
  "abi": [
    {
      "anonymous": false,
      "inputs": [
        {
          "indexed": true,
          "internalType": "address",
          "name": "from",
          "type": "address"
        },
        {
          "indexed": false,
          "internalType": "uint256",
          "name": "id",
          "type": "uint256"
        },
        {
          "indexed": false,
          "internalType": "uint256",
          "name": "timestamp",
          "type": "uint256"
        },
        {
          "indexed": false,
          "internalType": "string",
          "name": "message",
          "type": "string"
        }
      ],
      "name": "Tweet",
      "type": "event"
    },
    {
      "inputs": [
        {
          "internalType": "string",
          "name": "message",
          "type": "string"
        }
      ],
      "name": "tweet",
      "outputs": [],
      "stateMutability": "nonpayable",
      "type": "function"
    },
    {
      "inputs": [
        {
          "internalType": "uint256",
          "name": "",
          "type": "uint256"
        }
      ],
      "name": "tweets",
      "outputs": [
        {
          "internalType": "string",
          "name": "",
          "type": "string"
        }
      ],
      "stateMutability": "view",
      "type": "function"
    }
  ],
  "bytecode": "0x608060405234801561001057600080fd5b50610581806100206000396000f3fe608060405234801561001057600080fd5b50600436106100365760003560e01c8063e8d857b01461003b578063fb46d4c51461006b575b600080fd5b610055600480360381019061005091906102c5565b610087565b604051610062919061038b565b60405180910390f35b61008560048036038101906100809190610412565b610127565b005b600160205280600052604060002060009150905080546100a69061048e565b80601f01602080910402602001604051908101604052809291908181526020018280546100d29061048e565b801561011f5780601f106100f45761010080835404028352916020019161011f565b820191906000526020600020905b81548152906001019060200180831161010257829003601f168201915b505050505081565b61013160006101be565b81816001600061014160006101d4565b8152602001908152602001600020919061015c9291906101e2565b503373ffffffffffffffffffffffffffffffffffffffff167fa63eec26841bb94437711a042d6becf5f84c6917dd62d33b08f2329398aa91e461019f60006101d4565b4285856040516101b2949392919061050b565b60405180910390a25050565b6001816000016000828254019250508190555050565b600081600001549050919050565b8280546101ee9061048e565b90600052602060002090601f0160209004810192826102105760008555610257565b82601f1061022957803560ff1916838001178555610257565b82800160010185558215610257579182015b8281111561025657823582559160200191906001019061023b565b5b5090506102649190610268565b5090565b5b80821115610281576000816000905550600101610269565b5090565b600080fd5b600080fd5b6000819050919050565b6102a28161028f565b81146102ad57600080fd5b50565b6000813590506102bf81610299565b92915050565b6000602082840312156102db576102da610285565b5b60006102e9848285016102b0565b91505092915050565b600081519050919050565b600082825260208201905092915050565b60005b8381101561032c578082015181840152602081019050610311565b8381111561033b576000848401525b50505050565b6000601f19601f8301169050919050565b600061035d826102f2565b61036781856102fd565b935061037781856020860161030e565b61038081610341565b840191505092915050565b600060208201905081810360008301526103a58184610352565b905092915050565b600080fd5b600080fd5b600080fd5b60008083601f8401126103d2576103d16103ad565b5b8235905067ffffffffffffffff8111156103ef576103ee6103b2565b5b60208301915083600182028301111561040b5761040a6103b7565b5b9250929050565b6000806020838503121561042957610428610285565b5b600083013567ffffffffffffffff8111156104475761044661028a565b5b610453858286016103bc565b92509250509250929050565b7f4e487b7100000000000000000000000000000000000000000000000000000000600052602260045260246000fd5b600060028204905060018216806104a657607f821691505b602082108114156104ba576104b961045f565b5b50919050565b6104c98161028f565b82525050565b82818337600083830152505050565b60006104ea83856102fd565b93506104f78385846104cf565b61050083610341565b840190509392505050565b600060608201905061052060008301876104c0565b61052d60208301866104c0565b81810360408301526105408184866104de565b90509594505050505056fea264697066735822122026122d129d6e41e3d20e935b3a0cd44d6e834e0729d0bdffb43f428cd260b44b64736f6c63430008090033",
  "linkReferences": {},
  "deployedLinkReferences": {}
}